{
    "contractName": "StandardProject",
    "abi": [
        {
            "constant": false,
            "inputs": [],
            "name": "projectStatus",
            "outputs": [
                {
                    "internalType": "enum StandardProject.ProjectStatus",
                    "name": "",
                    "type": "uint8"
                }
            ],
            "payable": false,
            "stateMutability": "nonpayable",
            "type": "function"
        },
        {
            "constant": true,
            "inputs": [],
            "name": "deadline",
            "outputs": [
                {
                    "internalType": "uint256",
                    "name": "",
                    "type": "uint256"
                }
            ],
            "payable": false,
            "stateMutability": "view",
            "type": "function"
        },
        {
            "constant": true,
            "inputs": [],
            "name": "beneficiary",
            "outputs": [
                {
                    "internalType": "address",
                    "name": "",
                    "type": "address"
                }
            ],
            "payable": false,
            "stateMutability": "view",
            "type": "function"
        },
        {
            "constant": false,
            "inputs": [],
            "name": "refund",
            "outputs": [],
            "payable": false,
            "stateMutability": "nonpayable",
            "type": "function"
        },
        {
            "constant": true,
            "inputs": [],
            "name": "fundingToken",
            "outputs": [
                {
                    "internalType": "contract FundingToken",
                    "name": "",
                    "type": "address"
                }
            ],
            "payable": false,
            "stateMutability": "view",
            "type": "function"
        },
        {
            "constant": true,
            "inputs": [],
            "name": "fundingGoal",
            "outputs": [
                {
                    "internalType": "uint256",
                    "name": "",
                    "type": "uint256"
                }
            ],
            "payable": false,
            "stateMutability": "view",
            "type": "function"
        },
        {
            "constant": true,
            "inputs": [],
            "name": "amountRaised",
            "outputs": [
                {
                    "internalType": "uint256",
                    "name": "amount",
                    "type": "uint256"
                }
            ],
            "payable": false,
            "stateMutability": "view",
            "type": "function"
        },
        {
            "constant": false,
            "inputs": [],
            "name": "fundingStage",
            "outputs": [
                {
                    "internalType": "enum StandardProject.FundingStage",
                    "name": "",
                    "type": "uint8"
                }
            ],
            "payable": false,
            "stateMutability": "nonpayable",
            "type": "function"
        },
        {
            "constant": false,
            "inputs": [
                {
                    "internalType": "uint256",
                    "name": "_funding",
                    "type": "uint256"
                },
                {
                    "internalType": "address",
                    "name": "investor",
                    "type": "address"
                }
            ],
            "name": "fund",
            "outputs": [
                {
                    "internalType": "bool",
                    "name": "",
                    "type": "bool"
                }
            ],
            "payable": true,
            "stateMutability": "payable",
            "type": "function"
        },
        {
            "inputs": [
                {
                    "internalType": "address",
                    "name": "_creator",
                    "type": "address"
                },
                {
                    "internalType": "uint256",
                    "name": "_fundingGoal",
                    "type": "uint256"
                },
                {
                    "internalType": "uint256",
                    "name": "_deadline",
                    "type": "uint256"
                },
                {
                    "internalType": "uint256",
                    "name": "initialSupply",
                    "type": "uint256"
                },
                {
                    "internalType": "uint256",
                    "name": "tokenPrice",
                    "type": "uint256"
                },
                {
                    "internalType": "string",
                    "name": "name",
                    "type": "string"
                },
                {
                    "internalType": "string",
                    "name": "symbol",
                    "type": "string"
                }
            ],
            "payable": false,
            "stateMutability": "nonpayable",
            "type": "constructor"
        },
        {
            "anonymous": false,
            "inputs": [
                {
                    "indexed": false,
                    "internalType": "address",
                    "name": "addr",
                    "type": "address"
                }
            ],
            "name": "LogContractConstructed",
            "type": "event"
        },
        {
            "anonymous": false,
            "inputs": [
                {
                    "indexed": true,
                    "internalType": "address",
                    "name": "contributor",
                    "type": "address"
                },
                {
                    "indexed": true,
                    "internalType": "uint256",
                    "name": "amount",
                    "type": "uint256"
                }
            ],
            "name": "LogFundRaised",
            "type": "event"
        },
        {
            "anonymous": false,
            "inputs": [
                {
                    "indexed": true,
                    "internalType": "uint256",
                    "name": "time",
                    "type": "uint256"
                },
                {
                    "indexed": false,
                    "internalType": "uint256",
                    "name": "funding",
                    "type": "uint256"
                }
            ],
            "name": "LogFundingGoalReached",
            "type": "event"
        },
        {
            "anonymous": false,
            "inputs": [
                {
                    "indexed": true,
                    "internalType": "address",
                    "name": "contributor",
                    "type": "address"
                },
                {
                    "indexed": true,
                    "internalType": "address",
                    "name": "project",
                    "type": "address"
                },
                {
                    "indexed": true,
                    "internalType": "uint256",
                    "name": "amount",
                    "type": "uint256"
                }
            ],
            "name": "LogRefund",
            "type": "event"
        },
        {
            "anonymous": false,
            "inputs": [
                {
                    "indexed": true,
                    "internalType": "address",
                    "name": "beneficiary",
                    "type": "address"
                },
                {
                    "indexed": true,
                    "internalType": "uint256",
                    "name": "payout",
                    "type": "uint256"
                }
            ],
            "name": "LogPayout",
            "type": "event"
        },
        {
            "anonymous": false,
            "inputs": [
                {
                    "indexed": true,
                    "internalType": "address",
                    "name": "contributor",
                    "type": "address"
                }
            ],
            "name": "LogDistributed",
            "type": "event"
        }
    ],
    "bytecode": "608060405234801561001057600080fd5b5060405162001b6338038062001b63833981810160405260e081101561003557600080fd5b815160208301516040808501516060860151608087015160a08801805194519698959793969295919492938201928464010000000082111561007657600080fd5b90830190602082018581111561008b57600080fd5b82516401000000008111828201881017156100a557600080fd5b82525081516020918201929091019080838360005b838110156100d25781810151838201526020016100ba565b50505050905090810190601f1680156100ff5780820380516001836020036101000a031916815260200191505b506040526020018051604051939291908464010000000082111561012257600080fd5b90830190602082018581111561013757600080fd5b825164010000000081118282018810171561015157600080fd5b82525081516020918201929091019080838360005b8381101561017e578181015183820152602001610166565b50505050905090810190601f1680156101ab5780820380516001836020036101000a031916815260200191505b506040819052600380546001600160a01b0319166001600160a01b038d1617905560028a905542600055600189905587935086925085915084906101ee9061035b565b808581526020018481526020018060200180602001838103835285818151815260200191508051906020019080838360005b83811015610238578181015183820152602001610220565b50505050905090810190601f1680156102655780820380516001836020036101000a031916815260200191505b50838103825284518152845160209182019186019080838360005b83811015610298578181015183820152602001610280565b50505050905090810190601f1680156102c55780820380516001836020036101000a031916815260200191505b509650505050505050604051809103906000f0801580156102ea573d6000803e3d6000fd5b50600480546001600160a01b0319166001600160a01b0392831617908190556040805191909216815290517fbd2f27ce26301b8b2bcaa5ede8517f5298534b37d59375c243a9cfc57de06c90916020908290030190a150506003805461ffff60a01b19169055506103699350505050565b610e298062000d3a83390190565b6109c180620003796000396000f3fe6080604052600436106100865760003560e01c806378065f271161005957806378065f27146101335780637a3a0e84146101485780637b3e5e7b1461015d578063cd57180414610172578063eee923951461019757610086565b80631ab333081461008b57806329dcb0cf146100c457806338af3eed146100eb578063590e1ae31461011c575b600080fd5b34801561009757600080fd5b506100a06101d7565b604051808260028111156100b057fe5b60ff16815260200191505060405180910390f35b3480156100d057600080fd5b506100d961035b565b60408051918252519081900360200190f35b3480156100f757600080fd5b50610100610361565b604080516001600160a01b039092168252519081900360200190f35b34801561012857600080fd5b50610131610370565b005b34801561013f57600080fd5b5061010061056f565b34801561015457600080fd5b506100d961057e565b34801561016957600080fd5b506100d9610584565b34801561017e57600080fd5b50610187610604565b604051808260038111156100b057fe5b6101c3600480360360408110156101ad57600080fd5b50803590602001356001600160a01b0316610788565b604080519115158252519081900360200190f35b6000600154600054014211801561020657506002600354600160a01b900460ff16600281111561020357fe5b14155b1561021f576003805460ff60a01b1916600160a01b1790555b6002600354600160a01b900460ff16600281111561023957fe5b1461034a5760025460048054600354604080516370a0823160e01b81526001600160a01b0392831694810194909452519116916370a08231916024808301926020929190829003018186803b15801561029157600080fd5b505afa1580156102a5573d6000803e3d6000fd5b505050506040513d60208110156102bb57600080fd5b50511061030e576003805460ff60a81b1916600160a81b1790819055600190600160a01b900460ff1660028111156102ef57fe5b1415610309576003805460ff60a81b1916600160a91b1790555b61034a565b6001600354600160a01b900460ff16600281111561032857fe5b141561034a576003808054600160a81b900460ff169081111561034757fe5b50505b50600354600160a01b900460ff1690565b60015481565b6003546001600160a01b031681565b6003808054600160a81b900460ff169081111561038957fe5b1461039357600080fd5b60048054604080516370a0823160e01b81523393810193909352516000926001600160a01b03909216916370a08231916024808301926020929190829003018186803b1580156103e257600080fd5b505afa1580156103f6573d6000803e3d6000fd5b505050506040513d602081101561040c57600080fd5b5051600480546003546040805163a9059cbb60e01b81526001600160a01b03928316948101949094526024840185905251939450169163a9059cbb916044808201926020929091908290030181600087803b15801561046a57600080fd5b505af115801561047e573d6000803e3d6000fd5b505050506040513d602081101561049457600080fd5b505161049f57600080fd5b600480546040805163501ad8ff60e11b8152905133936108fc936001600160a01b03169263a035b1fe9281830192602092829003018186803b1580156104e457600080fd5b505afa1580156104f8573d6000803e3d6000fd5b505050506040513d602081101561050e57600080fd5b5051604051908402801590920291906000818181858888f1935050505015801561053c573d6000803e3d6000fd5b506040518190309033907fc2b63887a40047a024d87de89972173a52a7d88c77fb3f7979612aa75e4a0f3790600090a450565b6004546001600160a01b031681565b60025481565b60048054604080516370a0823160e01b81523093810193909352516000926001600160a01b03909216916370a08231916024808301926020929190829003018186803b1580156105d357600080fd5b505afa1580156105e7573d6000803e3d6000fd5b505050506040513d60208110156105fd57600080fd5b5051919050565b6000600154600054014211801561063357506002600354600160a01b900460ff16600281111561063057fe5b14155b1561064c576003805460ff60a01b1916600160a01b1790555b6002600354600160a01b900460ff16600281111561066657fe5b146107775760025460048054600354604080516370a0823160e01b81526001600160a01b0392831694810194909452519116916370a08231916024808301926020929190829003018186803b1580156106be57600080fd5b505afa1580156106d2573d6000803e3d6000fd5b505050506040513d60208110156106e857600080fd5b50511061073b576003805460ff60a81b1916600160a81b1790819055600190600160a01b900460ff16600281111561071c57fe5b1415610736576003805460ff60a81b1916600160a91b1790555b610777565b6001600354600160a01b900460ff16600281111561075557fe5b1415610777576003808054600160a81b900460ff169081111561077457fe5b50505b50600354600160a81b900460ff1690565b600080610793610604565b600381111561079e57fe5b1480156107ab5750600034115b6107e65760405162461bcd60e51b81526004018080602001828103825260448152602001806109496044913960600191505060405180910390fd5b600254836107f2610584565b01118061080e5750610802610584565b8361080b610584565b01105b156108225761081b610584565b6002540392505b600480546040805163a9059cbb60e01b81526001600160a01b0386811694820194909452602481018790529051929091169163a9059cbb916044808201926020929091908290030181600087803b15801561087c57600080fd5b505af1158015610890573d6000803e3d6000fd5b505050506040513d60208110156108a657600080fd5b50516108b157600080fd5b60405183906001600160a01b038416907fba259a3a7572d5f250432abccfb22e51199ca39451dd047d352c296dbbaac66b90600090a36002546108f2610584565b1415610942576003805460ff60a81b1916600160a81b17905560408051848152905142917f95d6feb0baf8cc0137674948d8dd4c6856af28f8ca88a439b747fce8bd2e4a4f919081900360200190a25b9291505056feebaaa8eab88820eab8b0eab084ec9db420eca285eba38ceb9098ec9788eab1b0eb829820ebb680eca081eca088ed959c20ec9e85eba0a5eab092ec9e85eb8b88eb8ba42ea265627a7a72315820687bb3f0ba72682db3ca2571b050dcdeaf9e4daeb9415ce1725a94330b5774a364736f6c634300050b003260806040523480156200001157600080fd5b5060405162000e2938038062000e29833981810160405260808110156200003757600080fd5b815160208301516040808501805191519395929483019291846401000000008211156200006357600080fd5b9083019060208201858111156200007957600080fd5b82516401000000008111828201881017156200009457600080fd5b82525081516020918201929091019080838360005b83811015620000c3578181015183820152602001620000a9565b50505050905090810190601f168015620000f15780820380516001836020036101000a031916815260200191505b50604052602001805160405193929190846401000000008211156200011557600080fd5b9083019060208201858111156200012b57600080fd5b82516401000000008111828201881017156200014657600080fd5b82525081516020918201929091019080838360005b83811015620001755781810151838201526020016200015b565b50505050905090810190601f168015620001a35780820380516001836020036101000a031916815260200191505b50604052505050620001bc3385620001f760201b60201c565b60038390558151620001d69060049060208501906200038e565b508051620001ec9060059060208401906200038e565b505050505062000433565b6001600160a01b0382166200026d57604080517f08c379a000000000000000000000000000000000000000000000000000000000815260206004820152601f60248201527f45524332303a206d696e7420746f20746865207a65726f206164647265737300604482015290519081900360640190fd5b62000289816002546200031260201b6200084f1790919060201c565b6002556001600160a01b03821660009081526020818152604090912054620002bc9183906200084f62000312821b17901c565b6001600160a01b0383166000818152602081815260408083209490945583518581529351929391927fddf252ad1be2c89b69c2b068fc378daa952ba7f163c4a11628f55a4df523b3ef9281900390910190a35050565b6000828201838110156200038757604080517f08c379a000000000000000000000000000000000000000000000000000000000815260206004820152601b60248201527f536166654d6174683a206164646974696f6e206f766572666c6f770000000000604482015290519081900360640190fd5b9392505050565b828054600181600116156101000203166002900490600052602060002090601f016020900481019282601f10620003d157805160ff191683800117855562000401565b8280016001018555821562000401579182015b8281111562000401578251825591602001919060010190620003e4565b506200040f92915062000413565b5090565b6200043091905b808211156200040f57600081556001016200041a565b90565b6109e680620004436000396000f3fe608060405234801561001057600080fd5b50600436106100a95760003560e01c806370a082311161007157806370a08231146101e757806395d89b411461020d578063a035b1fe14610215578063a457c2d71461021d578063a9059cbb14610249578063dd62ed3e14610275576100a9565b806306fdde03146100ae578063095ea7b31461012b57806318160ddd1461016b57806323b872dd1461018557806339509351146101bb575b600080fd5b6100b66102a3565b6040805160208082528351818301528351919283929083019185019080838360005b838110156100f05781810151838201526020016100d8565b50505050905090810190601f16801561011d5780820380516001836020036101000a031916815260200191505b509250505060405180910390f35b6101576004803603604081101561014157600080fd5b506001600160a01b038135169060200135610339565b604080519115158252519081900360200190f35b610173610356565b60408051918252519081900360200190f35b6101576004803603606081101561019b57600080fd5b506001600160a01b0381358116916020810135909116906040013561035c565b610157600480360360408110156101d157600080fd5b506001600160a01b0381351690602001356103e9565b610173600480360360208110156101fd57600080fd5b50356001600160a01b031661043d565b6100b6610458565b6101736104b9565b6101576004803603604081101561023357600080fd5b506001600160a01b0381351690602001356104bf565b6101576004803603604081101561025f57600080fd5b506001600160a01b03813516906020013561052d565b6101736004803603604081101561028b57600080fd5b506001600160a01b0381358116916020013516610541565b60048054604080516020601f600260001961010060018816150201909516949094049384018190048102820181019092528281526060939092909183018282801561032f5780601f106103045761010080835404028352916020019161032f565b820191906000526020600020905b81548152906001019060200180831161031257829003601f168201915b5050505050905090565b600061034d61034661056c565b8484610570565b50600192915050565b60025490565b600061036984848461065c565b6103df8461037561056c565b6103da8560405180606001604052806028815260200161091c602891396001600160a01b038a166000908152600160205260408120906103b361056c565b6001600160a01b03168152602081019190915260400160002054919063ffffffff6107b816565b610570565b5060019392505050565b600061034d6103f661056c565b846103da856001600061040761056c565b6001600160a01b03908116825260208083019390935260409182016000908120918c16815292529020549063ffffffff61084f16565b6001600160a01b031660009081526020819052604090205490565b60058054604080516020601f600260001961010060018816150201909516949094049384018190048102820181019092528281526060939092909183018282801561032f5780601f106103045761010080835404028352916020019161032f565b60035490565b600061034d6104cc61056c565b846103da8560405180606001604052806025815260200161098d60259139600160006104f661056c565b6001600160a01b03908116825260208083019390935260409182016000908120918d1681529252902054919063ffffffff6107b816565b600061034d61053a61056c565b848461065c565b6001600160a01b03918216600090815260016020908152604080832093909416825291909152205490565b3390565b6001600160a01b0383166105b55760405162461bcd60e51b81526004018080602001828103825260248152602001806109696024913960400191505060405180910390fd5b6001600160a01b0382166105fa5760405162461bcd60e51b81526004018080602001828103825260228152602001806108d46022913960400191505060405180910390fd5b6001600160a01b03808416600081815260016020908152604080832094871680845294825291829020859055815185815291517f8c5be1e5ebec7d5bd14f71427d1e84f3dd0314c0f7b2291e5b200ac8c7c3b9259281900390910190a3505050565b6001600160a01b0383166106a15760405162461bcd60e51b81526004018080602001828103825260258152602001806109446025913960400191505060405180910390fd5b6001600160a01b0382166106e65760405162461bcd60e51b81526004018080602001828103825260238152602001806108b16023913960400191505060405180910390fd5b610729816040518060600160405280602681526020016108f6602691396001600160a01b038616600090815260208190526040902054919063ffffffff6107b816565b6001600160a01b03808516600090815260208190526040808220939093559084168152205461075e908263ffffffff61084f16565b6001600160a01b038084166000818152602081815260409182902094909455805185815290519193928716927fddf252ad1be2c89b69c2b068fc378daa952ba7f163c4a11628f55a4df523b3ef92918290030190a3505050565b600081848411156108475760405162461bcd60e51b81526004018080602001828103825283818151815260200191508051906020019080838360005b8381101561080c5781810151838201526020016107f4565b50505050905090810190601f1680156108395780820380516001836020036101000a031916815260200191505b509250505060405180910390fd5b505050900390565b6000828201838110156108a9576040805162461bcd60e51b815260206004820152601b60248201527f536166654d6174683a206164646974696f6e206f766572666c6f770000000000604482015290519081900360640190fd5b939250505056fe45524332303a207472616e7366657220746f20746865207a65726f206164647265737345524332303a20617070726f766520746f20746865207a65726f206164647265737345524332303a207472616e7366657220616d6f756e7420657863656564732062616c616e636545524332303a207472616e7366657220616d6f756e74206578636565647320616c6c6f77616e636545524332303a207472616e736665722066726f6d20746865207a65726f206164647265737345524332303a20617070726f76652066726f6d20746865207a65726f206164647265737345524332303a2064656372656173656420616c6c6f77616e63652062656c6f77207a65726fa265627a7a72315820f0cd0e17a2cf5866ef270e0ae4798a83ffabf1743dcc523208dc87285d40f7f964736f6c634300050b0032",
    "sourcePath": "/home/ckh/dev/token-test/contract/contracts/StandardProject.sol",
    "compiler": {
        "name": "solc",
        "version": "0.5.11+commit.c082d0b4"
    },
    "functionHashes": {
        "amountRaised()": "7b3e5e7b",
        "beneficiary()": "38af3eed",
        "deadline()": "29dcb0cf",
        "fund(uint256,address)": "eee92395",
        "fundingGoal()": "7a3a0e84",
        "fundingStage()": "cd571804",
        "fundingToken()": "78065f27",
        "projectStatus()": "1ab33308",
        "refund()": "590e1ae3"
    },
    "gasEstimates": {
        "creation": {
            "codeDepositCost": "499400",
            "executionCost": "infinite",
            "totalCost": "infinite"
        },
        "external": {
            "amountRaised()": "infinite",
            "beneficiary()": "482",
            "deadline()": "421",
            "fund(uint256,address)": "infinite",
            "fundingGoal()": "420",
            "fundingStage()": "infinite",
            "fundingToken()": "437",
            "projectStatus()": "infinite",
            "refund()": "infinite"
        }
    }
}