{
    "contractName": "StandardProject",
    "abi": [
        {
            "constant": false,
            "inputs": [],
            "name": "projectStatus",
            "outputs": [
                {
                    "internalType": "enum StandardProject.ProjectStatus",
                    "name": "",
                    "type": "uint8"
                }
            ],
            "payable": false,
            "stateMutability": "nonpayable",
            "type": "function"
        },
        {
            "constant": true,
            "inputs": [],
            "name": "deadline",
            "outputs": [
                {
                    "internalType": "uint256",
                    "name": "",
                    "type": "uint256"
                }
            ],
            "payable": false,
            "stateMutability": "view",
            "type": "function"
        },
        {
            "constant": false,
            "inputs": [
                {
                    "internalType": "uint256",
                    "name": "_funding",
                    "type": "uint256"
                }
            ],
            "name": "deposite",
            "outputs": [
                {
                    "internalType": "bool",
                    "name": "",
                    "type": "bool"
                }
            ],
            "payable": true,
            "stateMutability": "payable",
            "type": "function"
        },
        {
            "constant": false,
            "inputs": [],
            "name": "withdraw",
            "outputs": [
                {
                    "internalType": "bool",
                    "name": "",
                    "type": "bool"
                }
            ],
            "payable": false,
            "stateMutability": "nonpayable",
            "type": "function"
        },
        {
            "constant": false,
            "inputs": [],
            "name": "refund",
            "outputs": [],
            "payable": false,
            "stateMutability": "nonpayable",
            "type": "function"
        },
        {
            "constant": true,
            "inputs": [],
            "name": "fundingToken",
            "outputs": [
                {
                    "internalType": "contract FundingToken",
                    "name": "",
                    "type": "address"
                }
            ],
            "payable": false,
            "stateMutability": "view",
            "type": "function"
        },
        {
            "constant": true,
            "inputs": [],
            "name": "fundingGoal",
            "outputs": [
                {
                    "internalType": "uint256",
                    "name": "",
                    "type": "uint256"
                }
            ],
            "payable": false,
            "stateMutability": "view",
            "type": "function"
        },
        {
            "constant": true,
            "inputs": [],
            "name": "amountRaised",
            "outputs": [
                {
                    "internalType": "uint256",
                    "name": "amount",
                    "type": "uint256"
                }
            ],
            "payable": false,
            "stateMutability": "view",
            "type": "function"
        },
        {
            "constant": true,
            "inputs": [],
            "name": "owner",
            "outputs": [
                {
                    "internalType": "address",
                    "name": "",
                    "type": "address"
                }
            ],
            "payable": false,
            "stateMutability": "view",
            "type": "function"
        },
        {
            "constant": false,
            "inputs": [
                {
                    "internalType": "uint256",
                    "name": "margin",
                    "type": "uint256"
                }
            ],
            "name": "distribute",
            "outputs": [
                {
                    "internalType": "bool",
                    "name": "",
                    "type": "bool"
                }
            ],
            "payable": false,
            "stateMutability": "nonpayable",
            "type": "function"
        },
        {
            "constant": true,
            "inputs": [],
            "name": "fundRaised",
            "outputs": [
                {
                    "internalType": "uint256",
                    "name": "",
                    "type": "uint256"
                }
            ],
            "payable": false,
            "stateMutability": "view",
            "type": "function"
        },
        {
            "constant": false,
            "inputs": [],
            "name": "fundingStage",
            "outputs": [
                {
                    "internalType": "enum StandardProject.FundingStage",
                    "name": "",
                    "type": "uint8"
                }
            ],
            "payable": false,
            "stateMutability": "nonpayable",
            "type": "function"
        },
        {
            "constant": true,
            "inputs": [],
            "name": "backAccount",
            "outputs": [
                {
                    "internalType": "address",
                    "name": "",
                    "type": "address"
                }
            ],
            "payable": false,
            "stateMutability": "view",
            "type": "function"
        },
        {
            "inputs": [
                {
                    "internalType": "address",
                    "name": "_owner",
                    "type": "address"
                },
                {
                    "internalType": "uint256",
                    "name": "_fundingGoal",
                    "type": "uint256"
                },
                {
                    "internalType": "uint256",
                    "name": "_deadline",
                    "type": "uint256"
                },
                {
                    "internalType": "string",
                    "name": "_name",
                    "type": "string"
                },
                {
                    "internalType": "string",
                    "name": "_symbol",
                    "type": "string"
                }
            ],
            "payable": false,
            "stateMutability": "nonpayable",
            "type": "constructor"
        },
        {
            "anonymous": false,
            "inputs": [
                {
                    "indexed": true,
                    "internalType": "address",
                    "name": "contributor",
                    "type": "address"
                },
                {
                    "indexed": true,
                    "internalType": "uint256",
                    "name": "amount",
                    "type": "uint256"
                }
            ],
            "name": "LogFundRaised",
            "type": "event"
        },
        {
            "anonymous": false,
            "inputs": [
                {
                    "indexed": true,
                    "internalType": "uint256",
                    "name": "time",
                    "type": "uint256"
                },
                {
                    "indexed": false,
                    "internalType": "uint256",
                    "name": "funding",
                    "type": "uint256"
                }
            ],
            "name": "LogFundingGoalReached",
            "type": "event"
        },
        {
            "anonymous": false,
            "inputs": [
                {
                    "indexed": true,
                    "internalType": "address",
                    "name": "contributor",
                    "type": "address"
                },
                {
                    "indexed": true,
                    "internalType": "address",
                    "name": "project",
                    "type": "address"
                },
                {
                    "indexed": true,
                    "internalType": "uint256",
                    "name": "amount",
                    "type": "uint256"
                }
            ],
            "name": "LogRefund",
            "type": "event"
        },
        {
            "anonymous": false,
            "inputs": [
                {
                    "indexed": true,
                    "internalType": "address",
                    "name": "owner",
                    "type": "address"
                },
                {
                    "indexed": true,
                    "internalType": "uint256",
                    "name": "payout",
                    "type": "uint256"
                }
            ],
            "name": "LogPayout",
            "type": "event"
        },
        {
            "anonymous": false,
            "inputs": [
                {
                    "indexed": true,
                    "internalType": "address",
                    "name": "contributor",
                    "type": "address"
                }
            ],
            "name": "LogDistributed",
            "type": "event"
        }
    ],
    "bytecode": "60806040523480156200001157600080fd5b506040516200208938038062002089833981810160405260a08110156200003757600080fd5b8151602083015160408085015160608601805192519496939591949391820192846401000000008211156200006b57600080fd5b9083019060208201858111156200008157600080fd5b82516401000000008111828201881017156200009c57600080fd5b82525081516020918201929091019080838360005b83811015620000cb578181015183820152602001620000b1565b50505050905090810190601f168015620000f95780820380516001836020036101000a031916815260200191505b50604052602001805160405193929190846401000000008211156200011d57600080fd5b9083019060208201858111156200013357600080fd5b82516401000000008111828201881017156200014e57600080fd5b82525081516020918201929091019080838360005b838110156200017d57818101518382015260200162000163565b50505050905090810190601f168015620001ab5780820380516001836020036101000a031916815260200191505b506040819052600380546001600160a01b038b166001600160a01b03199182161790915560048054909116331790556002888155426000556001889055606494508493508692508591620001ff9062000347565b8086815260200185815260200180602001806020018460ff168152602001838103835286818151815260200191508051906020019080838360005b83811015620002545781810151838201526020016200023a565b50505050905090810190601f168015620002825780820380516001836020036101000a031916815260200191505b50838103825285518152855160209182019187019080838360005b83811015620002b75781810151838201526020016200029d565b50505050905090810190601f168015620002e55780820380516001836020036101000a031916815260200191505b50975050505050505050604051809103906000f0801580156200030c573d6000803e3d6000fd5b50600680546001600160a01b0392909216620100000262010000600160b01b03199092169190911761ffff1916905550620003559350505050565b610e78806200121183390190565b610eac80620003656000396000f3fe6080604052600436106100c25760003560e01c80637a3a0e841161007f57806391c05b0b1161005957806391c05b0b146101f4578063c71c0b401461021e578063cd57180414610233578063fade693714610258576100c2565b80637a3a0e84146101b55780637b3e5e7b146101ca5780638da5cb5b146101df576100c2565b80631ab33308146100c757806329dcb0cf146101005780633104562b146101275780633ccfd60b14610158578063590e1ae31461016d57806378065f2714610184575b600080fd5b3480156100d357600080fd5b506100dc61026d565b604051808260028111156100ec57fe5b60ff16815260200191505060405180910390f35b34801561010c57600080fd5b506101156103c6565b60408051918252519081900360200190f35b6101446004803603602081101561013d57600080fd5b50356103cc565b604080519115158252519081900360200190f35b34801561016457600080fd5b506101446105e5565b34801561017957600080fd5b5061018261066f565b005b34801561019057600080fd5b5061019961088e565b604080516001600160a01b039092168252519081900360200190f35b3480156101c157600080fd5b506101156108a3565b3480156101d657600080fd5b506101156108a9565b3480156101eb57600080fd5b506101996109ab565b34801561020057600080fd5b506101446004803603602081101561021757600080fd5b50356109ba565b34801561022a57600080fd5b50610115610b2b565b34801561023f57600080fd5b50610248610b41565b604051808260038111156100ec57fe5b34801561026457600080fd5b50610199610c9f565b600060015460005401421180156102955750600260065460ff16600281111561029257fe5b14155b156102a8576006805460ff191660011790555b600260065460ff1660028111156102bb57fe5b146103bc57600254600654600354604080516370a0823160e01b81526001600160a01b039283166004820152905162010000909304909116916370a0823191602480820192602092909190829003018186803b15801561031a57600080fd5b505afa15801561032e573d6000803e3d6000fd5b505050506040513d602081101561034457600080fd5b505110610388576006805461ff001916610100179081905560019060ff16600281111561036d57fe5b1415610383576006805461ff0019166102001790555b6103bc565b600160065460ff16600281111561039b57fe5b14156103bc576003600654610100900460ff1660038111156103b957fe5b50505b5060065460ff1690565b60015481565b6000806103d7610b41565b60038111156103e257fe5b1461041e5760405162461bcd60e51b8152600401808060200182810382526028815260200180610df56028913960400191505060405180910390fd5b81600660029054906101000a90046001600160a01b03166001600160a01b031663a035b1fe6040518163ffffffff1660e01b815260040160206040518083038186803b15801561046d57600080fd5b505afa158015610481573d6000803e3d6000fd5b505050506040513d602081101561049757600080fd5b505134816104a157fe5b04146104de5760405162461bcd60e51b815260040180806020018281038252603a815260200180610e3e603a913960400191505060405180910390fd5b600254826104ea6108a9565b01118061050657506104fa6108a9565b826105036108a9565b01105b1561051a576105136108a9565b6002540391505b6005805460018101825560009182527f036b6384b5eca791c62761152d0c79bb0604c104a5fb6f4eb0703f3154bb3db00180546001600160a01b0319163390811790915560405184927fba259a3a7572d5f250432abccfb22e51199ca39451dd047d352c296dbbaac66b91a36002546105916108a9565b14156105dd576006805461ff00191661010017905560408051838152905142917f95d6feb0baf8cc0137674948d8dd4c6856af28f8ca88a439b747fce8bd2e4a4f919081900360200190a25b506001919050565b6003546000906001600160a01b0316331461063e576040805162461bcd60e51b81526020600482015260146024820152732737ba1020baba3437b934bd32b21027bbb732b960611b604482015290519081900360640190fd5b6040513390303180156108fc02916000818181858888f1935050505015801561066b573d6000803e3d6000fd5b5090565b6003600654610100900460ff16600381111561068757fe5b1461069157600080fd5b600654604080516370a0823160e01b815233600482015290516000926201000090046001600160a01b0316916370a08231916024808301926020929190829003018186803b1580156106e257600080fd5b505afa1580156106f6573d6000803e3d6000fd5b505050506040513d602081101561070c57600080fd5b5051600654600480546040805163a9059cbb60e01b81526001600160a01b03928316938101939093526024830185905251939450620100009092049091169163a9059cbb916044808201926020929091908290030181600087803b15801561077357600080fd5b505af1158015610787573d6000803e3d6000fd5b505050506040513d602081101561079d57600080fd5b50516107a857600080fd5b336001600160a01b03166108fc600660029054906101000a90046001600160a01b03166001600160a01b031663a035b1fe6040518163ffffffff1660e01b815260040160206040518083038186803b15801561080357600080fd5b505afa158015610817573d6000803e3d6000fd5b505050506040513d602081101561082d57600080fd5b5051604051908402801590920291906000818181858888f1935050505015801561085b573d6000803e3d6000fd5b506040518190309033907fc2b63887a40047a024d87de89972173a52a7d88c77fb3f7979612aa75e4a0f3790600090a450565b6006546201000090046001600160a01b031681565b60025481565b60065460048054604080516370a0823160e01b81526001600160a01b039283169381019390935251600093620100009004909116916370a08231916024808301926020929190829003018186803b15801561090357600080fd5b505afa158015610917573d6000803e3d6000fd5b505050506040513d602081101561092d57600080fd5b5051600654604080516318160ddd60e01b81529051620100009092046001600160a01b0316916318160ddd91600480820192602092909190829003018186803b15801561097957600080fd5b505afa15801561098d573d6000803e3d6000fd5b505050506040513d60208110156109a357600080fd5b505103919050565b6003546001600160a01b031681565b6000805b60006001600160a01b0316600582815481106109d657fe5b6000918252602090912001546001600160a01b031614610b25576000610ab46109fd6108a9565b600660029054906101000a90046001600160a01b03166001600160a01b03166370a0823160058681548110610a2e57fe5b60009182526020918290200154604080516001600160e01b031960e086901b1681526001600160a01b0390921660048301525160248083019392829003018186803b158015610a7c57600080fd5b505afa158015610a90573d6000803e3d6000fd5b505050506040513d6020811015610aa657600080fd5b50519063ffffffff610cae16565b90506000610ac8858363ffffffff610cf916565b905060058380600101945081548110610add57fe5b60009182526020822001546040516001600160a01b039091169183156108fc02918491818181858888f19350505050158015610b1d573d6000803e3d6000fd5b5050506109be565b50919050565b6006546201000090046001600160a01b03163190565b60006001546000540142118015610b695750600260065460ff166002811115610b6657fe5b14155b15610b7c576006805460ff191660011790555b600260065460ff166002811115610b8f57fe5b14610c9057600254600654600354604080516370a0823160e01b81526001600160a01b039283166004820152905162010000909304909116916370a0823191602480820192602092909190829003018186803b158015610bee57600080fd5b505afa158015610c02573d6000803e3d6000fd5b505050506040513d6020811015610c1857600080fd5b505110610c5c576006805461ff001916610100179081905560019060ff166002811115610c4157fe5b1415610c57576006805461ff0019166102001790555b610c90565b600160065460ff166002811115610c6f57fe5b1415610c90576003600654610100900460ff166003811115610c8d57fe5b50505b50600654610100900460ff1690565b6004546001600160a01b031681565b6000610cf083836040518060400160405280601a81526020017f536166654d6174683a206469766973696f6e206279207a65726f000000000000815250610d52565b90505b92915050565b600082610d0857506000610cf3565b82820282848281610d1557fe5b0414610cf05760405162461bcd60e51b8152600401808060200182810382526021815260200180610e1d6021913960400191505060405180910390fd5b60008183610dde5760405162461bcd60e51b81526004018080602001828103825283818151815260200191508051906020019080838360005b83811015610da3578181015183820152602001610d8b565b50505050905090810190601f168015610dd05780820380516001836020036101000a031916815260200191505b509250505060405180910390fd5b506000838581610dea57fe5b049594505050505056feebaaa8eab88820eab8b0eab084ec9db420eca285eba38ceb9098ec9788ec8ab5eb8b88eb8ba42e2e536166654d6174683a206d756c7469706c69636174696f6e206f766572666c6f77ebb680eca081eca088ed959c20ec9e85eba0a5eab092ec9e85eb8b88eb8ba42e2076616c7565eba5bc20ed9995ec9db8ed9598ec84b8ec9a942ea265627a7a72315820ad2207490142ac0278a9165f0ec6274a8b5d946e06aafb831fc64013db198e3664736f6c634300050b003260806040523480156200001157600080fd5b5060405162000e7838038062000e78833981810160405260a08110156200003757600080fd5b815160208301516040808501805191519395929483019291846401000000008211156200006357600080fd5b9083019060208201858111156200007957600080fd5b82516401000000008111828201881017156200009457600080fd5b82525081516020918201929091019080838360005b83811015620000c3578181015183820152602001620000a9565b50505050905090810190601f168015620000f15780820380516001836020036101000a031916815260200191505b50604052602001805160405193929190846401000000008211156200011557600080fd5b9083019060208201858111156200012b57600080fd5b82516401000000008111828201881017156200014657600080fd5b82525081516020918201929091019080838360005b83811015620001755781810151838201526020016200015b565b50505050905090810190601f168015620001a35780820380516001836020036101000a031916815260200191505b50604052602001519150620001c4905033866001600160e01b036200021416565b60038490558251620001de906004906020860190620003ab565b508151620001f4906005906020850190620003ab565b506006805460ff191660ff92909216919091179055506200045092505050565b6001600160a01b0382166200028a57604080517f08c379a000000000000000000000000000000000000000000000000000000000815260206004820152601f60248201527f45524332303a206d696e7420746f20746865207a65726f206164647265737300604482015290519081900360640190fd5b620002a6816002546200032f60201b620008811790919060201c565b6002556001600160a01b03821660009081526020818152604090912054620002d9918390620008816200032f821b17901c565b6001600160a01b0383166000818152602081815260408083209490945583518581529351929391927fddf252ad1be2c89b69c2b068fc378daa952ba7f163c4a11628f55a4df523b3ef9281900390910190a35050565b600082820183811015620003a457604080517f08c379a000000000000000000000000000000000000000000000000000000000815260206004820152601b60248201527f536166654d6174683a206164646974696f6e206f766572666c6f770000000000604482015290519081900360640190fd5b9392505050565b828054600181600116156101000203166002900490600052602060002090601f016020900481019282601f10620003ee57805160ff19168380011785556200041e565b828001600101855582156200041e579182015b828111156200041e57825182559160200191906001019062000401565b506200042c92915062000430565b5090565b6200044d91905b808211156200042c576000815560010162000437565b90565b610a1880620004606000396000f3fe608060405234801561001057600080fd5b50600436106100b45760003560e01c806370a082311161007157806370a082311461021057806395d89b4114610236578063a035b1fe1461023e578063a457c2d714610246578063a9059cbb14610272578063dd62ed3e1461029e576100b4565b806306fdde03146100b9578063095ea7b31461013657806318160ddd1461017657806323b872dd14610190578063313ce567146101c657806339509351146101e4575b600080fd5b6100c16102cc565b6040805160208082528351818301528351919283929083019185019080838360005b838110156100fb5781810151838201526020016100e3565b50505050905090810190601f1680156101285780820380516001836020036101000a031916815260200191505b509250505060405180910390f35b6101626004803603604081101561014c57600080fd5b506001600160a01b038135169060200135610362565b604080519115158252519081900360200190f35b61017e61037f565b60408051918252519081900360200190f35b610162600480360360608110156101a657600080fd5b506001600160a01b03813581169160208101359091169060400135610385565b6101ce610412565b6040805160ff9092168252519081900360200190f35b610162600480360360408110156101fa57600080fd5b506001600160a01b03813516906020013561041b565b61017e6004803603602081101561022657600080fd5b50356001600160a01b031661046f565b6100c161048a565b61017e6104eb565b6101626004803603604081101561025c57600080fd5b506001600160a01b0381351690602001356104f1565b6101626004803603604081101561028857600080fd5b506001600160a01b03813516906020013561055f565b61017e600480360360408110156102b457600080fd5b506001600160a01b0381358116916020013516610573565b60048054604080516020601f60026000196101006001881615020190951694909404938401819004810282018101909252828152606093909290918301828280156103585780601f1061032d57610100808354040283529160200191610358565b820191906000526020600020905b81548152906001019060200180831161033b57829003601f168201915b5050505050905090565b600061037661036f61059e565b84846105a2565b50600192915050565b60025490565b600061039284848461068e565b6104088461039e61059e565b6104038560405180606001604052806028815260200161094e602891396001600160a01b038a166000908152600160205260408120906103dc61059e565b6001600160a01b03168152602081019190915260400160002054919063ffffffff6107ea16565b6105a2565b5060019392505050565b60065460ff1690565b600061037661042861059e565b84610403856001600061043961059e565b6001600160a01b03908116825260208083019390935260409182016000908120918c16815292529020549063ffffffff61088116565b6001600160a01b031660009081526020819052604090205490565b60058054604080516020601f60026000196101006001881615020190951694909404938401819004810282018101909252828152606093909290918301828280156103585780601f1061032d57610100808354040283529160200191610358565b60035490565b60006103766104fe61059e565b84610403856040518060600160405280602581526020016109bf602591396001600061052861059e565b6001600160a01b03908116825260208083019390935260409182016000908120918d1681529252902054919063ffffffff6107ea16565b600061037661056c61059e565b848461068e565b6001600160a01b03918216600090815260016020908152604080832093909416825291909152205490565b3390565b6001600160a01b0383166105e75760405162461bcd60e51b815260040180806020018281038252602481526020018061099b6024913960400191505060405180910390fd5b6001600160a01b03821661062c5760405162461bcd60e51b81526004018080602001828103825260228152602001806109066022913960400191505060405180910390fd5b6001600160a01b03808416600081815260016020908152604080832094871680845294825291829020859055815185815291517f8c5be1e5ebec7d5bd14f71427d1e84f3dd0314c0f7b2291e5b200ac8c7c3b9259281900390910190a3505050565b6001600160a01b0383166106d35760405162461bcd60e51b81526004018080602001828103825260258152602001806109766025913960400191505060405180910390fd5b6001600160a01b0382166107185760405162461bcd60e51b81526004018080602001828103825260238152602001806108e36023913960400191505060405180910390fd5b61075b81604051806060016040528060268152602001610928602691396001600160a01b038616600090815260208190526040902054919063ffffffff6107ea16565b6001600160a01b038085166000908152602081905260408082209390935590841681522054610790908263ffffffff61088116565b6001600160a01b038084166000818152602081815260409182902094909455805185815290519193928716927fddf252ad1be2c89b69c2b068fc378daa952ba7f163c4a11628f55a4df523b3ef92918290030190a3505050565b600081848411156108795760405162461bcd60e51b81526004018080602001828103825283818151815260200191508051906020019080838360005b8381101561083e578181015183820152602001610826565b50505050905090810190601f16801561086b5780820380516001836020036101000a031916815260200191505b509250505060405180910390fd5b505050900390565b6000828201838110156108db576040805162461bcd60e51b815260206004820152601b60248201527f536166654d6174683a206164646974696f6e206f766572666c6f770000000000604482015290519081900360640190fd5b939250505056fe45524332303a207472616e7366657220746f20746865207a65726f206164647265737345524332303a20617070726f766520746f20746865207a65726f206164647265737345524332303a207472616e7366657220616d6f756e7420657863656564732062616c616e636545524332303a207472616e7366657220616d6f756e74206578636565647320616c6c6f77616e636545524332303a207472616e736665722066726f6d20746865207a65726f206164647265737345524332303a20617070726f76652066726f6d20746865207a65726f206164647265737345524332303a2064656372656173656420616c6c6f77616e63652062656c6f77207a65726fa265627a7a72315820e758b59ccbb65a1309557cb41206bb9b5d063ff46a4213f763cf0bdf9cb18f5864736f6c634300050b0032",
    "sourcePath": "/home/ckh/dev/contract/contracts/StandardProject.sol",
    "compiler": {
        "name": "solc",
        "version": "0.5.11+commit.c082d0b4"
    },
    "functionHashes": {
        "amountRaised()": "7b3e5e7b",
        "backAccount()": "fade6937",
        "deadline()": "29dcb0cf",
        "deposite(uint256)": "3104562b",
        "distribute(uint256)": "91c05b0b",
        "fundRaised()": "c71c0b40",
        "fundingGoal()": "7a3a0e84",
        "fundingStage()": "cd571804",
        "fundingToken()": "78065f27",
        "owner()": "8da5cb5b",
        "projectStatus()": "1ab33308",
        "refund()": "590e1ae3",
        "withdraw()": "3ccfd60b"
    },
    "gasEstimates": {
        "creation": {
            "codeDepositCost": "751200",
            "executionCost": "infinite",
            "totalCost": "infinite"
        },
        "external": {
            "amountRaised()": "infinite",
            "backAccount()": "525",
            "deadline()": "421",
            "deposite(uint256)": "infinite",
            "distribute(uint256)": "infinite",
            "fundRaised()": "871",
            "fundingGoal()": "421",
            "fundingStage()": "infinite",
            "fundingToken()": "559",
            "owner()": "504",
            "projectStatus()": "infinite",
            "refund()": "infinite",
            "withdraw()": "infinite"
        }
    }
}