{
  "contractName": "Project",
  "abi": [
    {
      "constant": true,
      "inputs": [],
      "name": "deadline",
      "outputs": [
        {
          "name": "",
          "type": "uint256"
        }
      ],
      "payable": false,
      "stateMutability": "view",
      "type": "function"
    },
    {
      "constant": true,
      "inputs": [],
      "name": "beneficiary",
      "outputs": [
        {
          "name": "",
          "type": "address"
        }
      ],
      "payable": false,
      "stateMutability": "view",
      "type": "function"
    },
    {
      "constant": true,
      "inputs": [],
      "name": "fundingToken",
      "outputs": [
        {
          "name": "",
          "type": "address"
        }
      ],
      "payable": false,
      "stateMutability": "view",
      "type": "function"
    },
    {
      "constant": true,
      "inputs": [],
      "name": "fundingGoal",
      "outputs": [
        {
          "name": "",
          "type": "uint256"
        }
      ],
      "payable": false,
      "stateMutability": "view",
      "type": "function"
    },
    {
      "inputs": [
        {
          "name": "_creator",
          "type": "address"
        },
        {
          "name": "_fundingGoal",
          "type": "uint256"
        },
        {
          "name": "_deadline",
          "type": "uint256"
        },
        {
          "name": "initialSupply",
          "type": "uint256"
        },
        {
          "name": "tokenPrice",
          "type": "uint256"
        },
        {
          "name": "name",
          "type": "string"
        },
        {
          "name": "symbol",
          "type": "string"
        }
      ],
      "payable": false,
      "stateMutability": "nonpayable",
      "type": "constructor"
    },
    {
      "anonymous": false,
      "inputs": [
        {
          "indexed": true,
          "name": "contributor",
          "type": "address"
        },
        {
          "indexed": true,
          "name": "project",
          "type": "address"
        },
        {
          "indexed": true,
          "name": "amount",
          "type": "uint256"
        }
      ],
      "name": "LogRefund",
      "type": "event"
    },
    {
      "constant": true,
      "inputs": [],
      "name": "amountRaised",
      "outputs": [
        {
          "name": "amount",
          "type": "uint256"
        }
      ],
      "payable": false,
      "stateMutability": "view",
      "type": "function"
    },
    {
      "constant": false,
      "inputs": [],
      "name": "projectStatus",
      "outputs": [
        {
          "name": "",
          "type": "uint8"
        }
      ],
      "payable": false,
      "stateMutability": "nonpayable",
      "type": "function"
    },
    {
      "constant": false,
      "inputs": [],
      "name": "fundingStage",
      "outputs": [
        {
          "name": "",
          "type": "uint8"
        }
      ],
      "payable": false,
      "stateMutability": "nonpayable",
      "type": "function"
    }
  ],
  "bytecode": "0x608060405234801561001057600080fd5b50604051612070380380612070833981018060405260e081101561003357600080fd5b810190808051906020019092919080519060200190929190805190602001909291908051906020019092919080519060200190929190805164010000000081111561007d57600080fd5b8281019050602081018481111561009357600080fd5b81518560018202830111640100000000821117156100b057600080fd5b505092919060200180516401000000008111156100cc57600080fd5b828101905060208101848111156100e257600080fd5b81518560018202830111640100000000821117156100ff57600080fd5b505092919050505086600360006101000a81548173ffffffffffffffffffffffffffffffffffffffff021916908373ffffffffffffffffffffffffffffffffffffffff1602179055508560028190555042600081905550846001819055508383838360405161016d90610307565b808581526020018481526020018060200180602001838103835285818151815260200191508051906020019080838360005b838110156101ba57808201518184015260208101905061019f565b50505050905090810190601f1680156101e75780820380516001836020036101000a031916815260200191505b50838103825284818151815260200191508051906020019080838360005b83811015610220578082015181840152602081019050610205565b50505050905090810190601f16801561024d5780820380516001836020036101000a031916815260200191505b509650505050505050604051809103906000f080158015610272573d6000803e3d6000fd5b50600460006101000a81548173ffffffffffffffffffffffffffffffffffffffff021916908373ffffffffffffffffffffffffffffffffffffffff1602179055506000600360156101000a81548160ff021916908360038111156102d257fe5b02179055506000600360146101000a81548160ff021916908360028111156102f657fe5b021790555050505050505050610314565b61151e80610b5283390190565b61082f806103236000396000f3fe608060405234801561001057600080fd5b506004361061007d5760003560e01c806378065f271161005b57806378065f27146101165780637a3a0e84146101605780637b3e5e7b1461017e578063cd5718041461019c5761007d565b80631ab333081461008257806329dcb0cf146100ae57806338af3eed146100cc575b600080fd5b61008a6101c8565b6040518082600281111561009a57fe5b60ff16815260200191505060405180910390f35b6100b6610449565b6040518082815260200191505060405180910390f35b6100d461044f565b604051808273ffffffffffffffffffffffffffffffffffffffff1673ffffffffffffffffffffffffffffffffffffffff16815260200191505060405180910390f35b61011e610475565b604051808273ffffffffffffffffffffffffffffffffffffffff1673ffffffffffffffffffffffffffffffffffffffff16815260200191505060405180910390f35b61016861049b565b6040518082815260200191505060405180910390f35b6101866104a1565b6040518082815260200191505060405180910390f35b6101a4610582565b604051808260038111156101b457fe5b60ff16815260200191505060405180910390f35b6000600154600054014211801561020457506002808111156101e657fe5b600360149054906101000a900460ff16600281111561020157fe5b14155b1561022e576001600360146101000a81548160ff0219169083600281111561022857fe5b02179055505b60028081111561023a57fe5b600360149054906101000a900460ff16600281111561025557fe5b1461043457600254600460009054906101000a900473ffffffffffffffffffffffffffffffffffffffff1673ffffffffffffffffffffffffffffffffffffffff166370a08231600360009054906101000a900473ffffffffffffffffffffffffffffffffffffffff166040518263ffffffff1660e01b8152600401808273ffffffffffffffffffffffffffffffffffffffff1673ffffffffffffffffffffffffffffffffffffffff16815260200191505060206040518083038186803b15801561031e57600080fd5b505afa158015610332573d6000803e3d6000fd5b505050506040513d602081101561034857600080fd5b8101908080519060200190929190505050106103da576001600360156101000a81548160ff0219169083600381111561037d57fe5b02179055506001600281111561038f57fe5b600360149054906101000a900460ff1660028111156103aa57fe5b14156103d5576002600360156101000a81548160ff021916908360038111156103cf57fe5b02179055505b610433565b600160028111156103e757fe5b600360149054906101000a900460ff16600281111561040257fe5b14156104325760038081111561041457fe5b600360159054906101000a900460ff16600381111561042f57fe5b50505b5b5b600360149054906101000a900460ff16905090565b60015481565b600360009054906101000a900473ffffffffffffffffffffffffffffffffffffffff1681565b600460009054906101000a900473ffffffffffffffffffffffffffffffffffffffff1681565b60025481565b6000600460009054906101000a900473ffffffffffffffffffffffffffffffffffffffff1673ffffffffffffffffffffffffffffffffffffffff166370a08231306040518263ffffffff1660e01b8152600401808273ffffffffffffffffffffffffffffffffffffffff1673ffffffffffffffffffffffffffffffffffffffff16815260200191505060206040518083038186803b15801561054257600080fd5b505afa158015610556573d6000803e3d6000fd5b505050506040513d602081101561056c57600080fd5b8101908080519060200190929190505050905090565b600060015460005401421180156105be57506002808111156105a057fe5b600360149054906101000a900460ff1660028111156105bb57fe5b14155b156105e8576001600360146101000a81548160ff021916908360028111156105e257fe5b02179055505b6002808111156105f457fe5b600360149054906101000a900460ff16600281111561060f57fe5b146107ee57600254600460009054906101000a900473ffffffffffffffffffffffffffffffffffffffff1673ffffffffffffffffffffffffffffffffffffffff166370a08231600360009054906101000a900473ffffffffffffffffffffffffffffffffffffffff166040518263ffffffff1660e01b8152600401808273ffffffffffffffffffffffffffffffffffffffff1673ffffffffffffffffffffffffffffffffffffffff16815260200191505060206040518083038186803b1580156106d857600080fd5b505afa1580156106ec573d6000803e3d6000fd5b505050506040513d602081101561070257600080fd5b810190808051906020019092919050505010610794576001600360156101000a81548160ff0219169083600381111561073757fe5b02179055506001600281111561074957fe5b600360149054906101000a900460ff16600281111561076457fe5b141561078f576002600360156101000a81548160ff0219169083600381111561078957fe5b02179055505b6107ed565b600160028111156107a157fe5b600360149054906101000a900460ff1660028111156107bc57fe5b14156107ec576003808111156107ce57fe5b600360159054906101000a900460ff1660038111156107e957fe5b50505b5b5b600360159054906101000a900460ff1690509056fea165627a7a72305820438786a05ba6f6389204c68f9fc38d6328262cb269dce23c4e025039bf8524a3002960806040523480156200001157600080fd5b506040516200151e3803806200151e833981018060405260808110156200003757600080fd5b81019080805190602001909291908051906020019092919080516401000000008111156200006457600080fd5b828101905060208101848111156200007b57600080fd5b81518560018202830111640100000000821117156200009957600080fd5b50509291906020018051640100000000811115620000b657600080fd5b82810190506020810184811115620000cd57600080fd5b8151856001820283011164010000000082111715620000eb57600080fd5b50509291905050506200010533856200014860201b60201c565b826003819055508160049080519060200190620001249291906200039b565b5080600590805190602001906200013d9291906200039b565b50505050506200044a565b600073ffffffffffffffffffffffffffffffffffffffff168273ffffffffffffffffffffffffffffffffffffffff161415620001ec576040517f08c379a000000000000000000000000000000000000000000000000000000000815260040180806020018281038252601f8152602001807f45524332303a206d696e7420746f20746865207a65726f20616464726573730081525060200191505060405180910390fd5b62000208816002546200031260201b62000f0f1790919060201c565b60028190555062000266816000808573ffffffffffffffffffffffffffffffffffffffff1673ffffffffffffffffffffffffffffffffffffffff168152602001908152602001600020546200031260201b62000f0f1790919060201c565b6000808473ffffffffffffffffffffffffffffffffffffffff1673ffffffffffffffffffffffffffffffffffffffff168152602001908152602001600020819055508173ffffffffffffffffffffffffffffffffffffffff16600073ffffffffffffffffffffffffffffffffffffffff167fddf252ad1be2c89b69c2b068fc378daa952ba7f163c4a11628f55a4df523b3ef836040518082815260200191505060405180910390a35050565b60008082840190508381101562000391576040517f08c379a000000000000000000000000000000000000000000000000000000000815260040180806020018281038252601b8152602001807f536166654d6174683a206164646974696f6e206f766572666c6f77000000000081525060200191505060405180910390fd5b8091505092915050565b828054600181600116156101000203166002900490600052602060002090601f016020900481019282601f10620003de57805160ff19168380011785556200040f565b828001600101855582156200040f579182015b828111156200040e578251825591602001919060010190620003f1565b5b5090506200041e919062000422565b5090565b6200044791905b808211156200044357600081600090555060010162000429565b5090565b90565b6110c4806200045a6000396000f3fe608060405234801561001057600080fd5b50600436106100a95760003560e01c806370a082311161007157806370a08231146102a157806395d89b41146102f9578063a035b1fe1461037c578063a457c2d71461039a578063a9059cbb14610400578063dd62ed3e14610466576100a9565b806306fdde03146100ae578063095ea7b31461013157806318160ddd1461019757806323b872dd146101b5578063395093511461023b575b600080fd5b6100b66104de565b6040518080602001828103825283818151815260200191508051906020019080838360005b838110156100f65780820151818401526020810190506100db565b50505050905090810190601f1680156101235780820380516001836020036101000a031916815260200191505b509250505060405180910390f35b61017d6004803603604081101561014757600080fd5b81019080803573ffffffffffffffffffffffffffffffffffffffff16906020019092919080359060200190929190505050610580565b604051808215151515815260200191505060405180910390f35b61019f61059e565b6040518082815260200191505060405180910390f35b610221600480360360608110156101cb57600080fd5b81019080803573ffffffffffffffffffffffffffffffffffffffff169060200190929190803573ffffffffffffffffffffffffffffffffffffffff169060200190929190803590602001909291905050506105a8565b604051808215151515815260200191505060405180910390f35b6102876004803603604081101561025157600080fd5b81019080803573ffffffffffffffffffffffffffffffffffffffff16906020019092919080359060200190929190505050610681565b604051808215151515815260200191505060405180910390f35b6102e3600480360360208110156102b757600080fd5b81019080803573ffffffffffffffffffffffffffffffffffffffff169060200190929190505050610734565b6040518082815260200191505060405180910390f35b61030161077c565b6040518080602001828103825283818151815260200191508051906020019080838360005b83811015610341578082015181840152602081019050610326565b50505050905090810190601f16801561036e5780820380516001836020036101000a031916815260200191505b509250505060405180910390f35b61038461081e565b6040518082815260200191505060405180910390f35b6103e6600480360360408110156103b057600080fd5b81019080803573ffffffffffffffffffffffffffffffffffffffff16906020019092919080359060200190929190505050610828565b604051808215151515815260200191505060405180910390f35b61044c6004803603604081101561041657600080fd5b81019080803573ffffffffffffffffffffffffffffffffffffffff169060200190929190803590602001909291905050506108f5565b604051808215151515815260200191505060405180910390f35b6104c86004803603604081101561047c57600080fd5b81019080803573ffffffffffffffffffffffffffffffffffffffff169060200190929190803573ffffffffffffffffffffffffffffffffffffffff169060200190929190505050610913565b6040518082815260200191505060405180910390f35b606060048054600181600116156101000203166002900480601f0160208091040260200160405190810160405280929190818152602001828054600181600116156101000203166002900480156105765780601f1061054b57610100808354040283529160200191610576565b820191906000526020600020905b81548152906001019060200180831161055957829003601f168201915b5050505050905090565b600061059461058d61099a565b84846109a2565b6001905092915050565b6000600254905090565b60006105b5848484610b99565b610676846105c161099a565b6106718560405180606001604052806028815260200161100360289139600160008b73ffffffffffffffffffffffffffffffffffffffff1673ffffffffffffffffffffffffffffffffffffffff168152602001908152602001600020600061062761099a565b73ffffffffffffffffffffffffffffffffffffffff1673ffffffffffffffffffffffffffffffffffffffff16815260200190815260200160002054610e4f9092919063ffffffff16565b6109a2565b600190509392505050565b600061072a61068e61099a565b84610725856001600061069f61099a565b73ffffffffffffffffffffffffffffffffffffffff1673ffffffffffffffffffffffffffffffffffffffff16815260200190815260200160002060008973ffffffffffffffffffffffffffffffffffffffff1673ffffffffffffffffffffffffffffffffffffffff16815260200190815260200160002054610f0f90919063ffffffff16565b6109a2565b6001905092915050565b60008060008373ffffffffffffffffffffffffffffffffffffffff1673ffffffffffffffffffffffffffffffffffffffff168152602001908152602001600020549050919050565b606060058054600181600116156101000203166002900480601f0160208091040260200160405190810160405280929190818152602001828054600181600116156101000203166002900480156108145780601f106107e957610100808354040283529160200191610814565b820191906000526020600020905b8154815290600101906020018083116107f757829003601f168201915b5050505050905090565b6000600354905090565b60006108eb61083561099a565b846108e685604051806060016040528060258152602001611074602591396001600061085f61099a565b73ffffffffffffffffffffffffffffffffffffffff1673ffffffffffffffffffffffffffffffffffffffff16815260200190815260200160002060008a73ffffffffffffffffffffffffffffffffffffffff1673ffffffffffffffffffffffffffffffffffffffff16815260200190815260200160002054610e4f9092919063ffffffff16565b6109a2565b6001905092915050565b600061090961090261099a565b8484610b99565b6001905092915050565b6000600160008473ffffffffffffffffffffffffffffffffffffffff1673ffffffffffffffffffffffffffffffffffffffff16815260200190815260200160002060008373ffffffffffffffffffffffffffffffffffffffff1673ffffffffffffffffffffffffffffffffffffffff16815260200190815260200160002054905092915050565b600033905090565b600073ffffffffffffffffffffffffffffffffffffffff168373ffffffffffffffffffffffffffffffffffffffff161415610a28576040517f08c379a00000000000000000000000000000000000000000000000000000000081526004018080602001828103825260248152602001806110506024913960400191505060405180910390fd5b600073ffffffffffffffffffffffffffffffffffffffff168273ffffffffffffffffffffffffffffffffffffffff161415610aae576040517f08c379a0000000000000000000000000000000000000000000000000000000008152600401808060200182810382526022815260200180610fbb6022913960400191505060405180910390fd5b80600160008573ffffffffffffffffffffffffffffffffffffffff1673ffffffffffffffffffffffffffffffffffffffff16815260200190815260200160002060008473ffffffffffffffffffffffffffffffffffffffff1673ffffffffffffffffffffffffffffffffffffffff168152602001908152602001600020819055508173ffffffffffffffffffffffffffffffffffffffff168373ffffffffffffffffffffffffffffffffffffffff167f8c5be1e5ebec7d5bd14f71427d1e84f3dd0314c0f7b2291e5b200ac8c7c3b925836040518082815260200191505060405180910390a3505050565b600073ffffffffffffffffffffffffffffffffffffffff168373ffffffffffffffffffffffffffffffffffffffff161415610c1f576040517f08c379a000000000000000000000000000000000000000000000000000000000815260040180806020018281038252602581526020018061102b6025913960400191505060405180910390fd5b600073ffffffffffffffffffffffffffffffffffffffff168273ffffffffffffffffffffffffffffffffffffffff161415610ca5576040517f08c379a0000000000000000000000000000000000000000000000000000000008152600401808060200182810382526023815260200180610f986023913960400191505060405180910390fd5b610d1081604051806060016040528060268152602001610fdd602691396000808773ffffffffffffffffffffffffffffffffffffffff1673ffffffffffffffffffffffffffffffffffffffff16815260200190815260200160002054610e4f9092919063ffffffff16565b6000808573ffffffffffffffffffffffffffffffffffffffff1673ffffffffffffffffffffffffffffffffffffffff16815260200190815260200160002081905550610da3816000808573ffffffffffffffffffffffffffffffffffffffff1673ffffffffffffffffffffffffffffffffffffffff16815260200190815260200160002054610f0f90919063ffffffff16565b6000808473ffffffffffffffffffffffffffffffffffffffff1673ffffffffffffffffffffffffffffffffffffffff168152602001908152602001600020819055508173ffffffffffffffffffffffffffffffffffffffff168373ffffffffffffffffffffffffffffffffffffffff167fddf252ad1be2c89b69c2b068fc378daa952ba7f163c4a11628f55a4df523b3ef836040518082815260200191505060405180910390a3505050565b6000838311158290610efc576040517f08c379a00000000000000000000000000000000000000000000000000000000081526004018080602001828103825283818151815260200191508051906020019080838360005b83811015610ec1578082015181840152602081019050610ea6565b50505050905090810190601f168015610eee5780820380516001836020036101000a031916815260200191505b509250505060405180910390fd5b5060008385039050809150509392505050565b600080828401905083811015610f8d576040517f08c379a000000000000000000000000000000000000000000000000000000000815260040180806020018281038252601b8152602001807f536166654d6174683a206164646974696f6e206f766572666c6f77000000000081525060200191505060405180910390fd5b809150509291505056fe45524332303a207472616e7366657220746f20746865207a65726f206164647265737345524332303a20617070726f766520746f20746865207a65726f206164647265737345524332303a207472616e7366657220616d6f756e7420657863656564732062616c616e636545524332303a207472616e7366657220616d6f756e74206578636565647320616c6c6f77616e636545524332303a207472616e736665722066726f6d20746865207a65726f206164647265737345524332303a20617070726f76652066726f6d20746865207a65726f206164647265737345524332303a2064656372656173656420616c6c6f77616e63652062656c6f77207a65726fa165627a7a72305820615226358d8ba6d234f8dff397e201533c52f476ace29400fe2dcb0ab6e788980029",
  "source": "pragma solidity ^0.5.0;\n\nimport \"./FundingToken.sol\";\n\ncontract Project {\n\n  // 클라이언트에 보낼 이벤트(트랜잭션 로그)) 정의\n  // event LogProjectContributed(address indexed contributor, uint indexed amount);\n  // event LogFundingGoalReached(uint indexed time, uint funding);\n  event LogRefund(address indexed contributor, address indexed project, uint indexed amount);\n  // event LogPayout(address indexed beneficiary, uint indexed payout);\n  // event LogDistributed(address indexed contributor);  // 수정 필요\n\n  enum ProjectStatus {\n    Active,   // FundingStage는 Open, FundingRaised, GoalReached 가능\n    Expired,  // FundingStage는 GoalReached, Distribution, failed 가능\n    Closed    // FuncdingStage가 Fail일 때만 가능\n  }\n\n  enum FundingStage {\n    Open,             // 펀딩이 시작되고 아직 목표 금액이 모이지 않은 상태\n    GoalReached,      // 목표 금액이 달성된 상태\n    Distribution,     // 배당 진행, 이 상태에서 프로젝트는 Closed 상태가 될 수 없다.\n    Failed            // 데드라인까지 목표금액 달성에 실패, 프로젝트는 Closed 상태가 된다.\n  }\n\n  // uint createdAtBlock;\n  uint creationTime;\n  uint public deadline;\n  uint public fundingGoal;\n  address public beneficiary;\n\n  ProjectStatus status;\n  FundingStage stage;\n  FundingToken public fundingToken;\n\n  modifier evalExpiry {\n    if (now > creationTime + deadline &&\n        status != ProjectStatus.Closed) {\n        status = ProjectStatus.Expired;\n    }\n    _;\n  }\n\n  modifier evalFundingStage {\n    // 프로젝트가 안 닫혀 있고\n    if (status != ProjectStatus.Closed) {\n      // 목표 금액을 달성했으면\n      if (fundingToken.balanceOf(beneficiary) >= fundingGoal) {\n        // 목표 달성...\n        stage = FundingStage.GoalReached;\n        // 펀딩 기간이 만료되면 배당 스테이지로 넘어간다.\n        if (status == ProjectStatus.Expired) {\n          stage = FundingStage.Distribution;\n        }\n      } else {\n        // 목표 금액 달성 안된 상태에서 기간 만료되면\n        if (status == ProjectStatus.Expired) {\n          // 펀딩 실패\n          stage == FundingStage.Failed;\n        }\n      }\n    }\n    _;\n  }\n\n  constructor (address _creator,// 펀딩된 금액을 받을 사람 - 게임회사 사장?\n    uint _fundingGoal,          // 목표 금액 (토큰 단위로)\n    uint _deadline,             // 기한 (초 단위로)\n    uint256 initialSupply,      // 토큰 발행량\n    uint256 tokenPrice,         // 토큰 가격\n    string memory name,         // 토큰 이름  ex) bitcoin\n    string memory symbol        // 토큰 심볼  ex) BTC\n  )\n    public\n  {\n    beneficiary = _creator;\n    fundingGoal = _fundingGoal;\n    creationTime = now;\n    deadline = _deadline;\n    fundingToken = new FundingToken(initialSupply, tokenPrice, name, symbol);\n    stage = FundingStage.Open;\n    status = ProjectStatus.Active;\n  }\n\n// function fund(uint _funding, address investor) public;\n// function refund() public;\n// function payout() public;\n\n  function amountRaised()\n      public\n      view\n      returns(uint amount)\n  {\n      amount = fundingToken.balanceOf(address(this));\n  }\n\n  function projectStatus()\n    public\n    evalExpiry\n    evalFundingStage\n    returns (ProjectStatus)\n  {\n    return status;\n  }\n\n  function fundingStage()\n    public\n    evalExpiry\n    evalFundingStage\n    returns (FundingStage)\n  {\n    return stage;\n  }\n\n  // function () external {}\n}",
  "sourcePath": "/home/ckh/dev/token-test/contract/contracts/Project.sol",
  "compiler": {
    "name": "solc",
    "version": "0.5.8+commit.23d335f2.Emscripten.clang"
  },
  "schemaVersion": "3.0.17",
  "updatedAt": "2019-11-02T08:19:07.588Z",
  "devdoc": {
    "methods": {}
  },
  "userdoc": {
    "methods": {}
  }
}